:040000000128FA2FAA
:100EB6000134163021009700080021009901220014
:100EC6009601080087316F27873187316027873180
:100ED60087315C278731080022008C018D018E0145
:100EE6003F3021008C00F0308D00C0308E00230092
:100EF6008E018D0103308C00F03024008D003F30D0
:100F06008C002100951322009D010800F1002200AB
:100F16008E0171080319902F912FA52F9B30003257
:100F2600890B922F7108F0007008F2000130F00072
:100F36007108FF3E890AA02FF035890B9F2F700894
:100F460022008E00080087316527873100308731FF
:100F56008927873120000C19B12FB22FC32F220009
:100F66000E08031DB72FB82FBD2F720887318927AA
:100F76008731AD2F0030873189278731AD2FAD2FCF
:100F86000C1AC62FC72FCC2F0130873189278731FE
:100F9600AD2F8C1ACF2FD02FD52F0230873189272E
:100FA6008731AD2F0D1AD82FD92FDE2F0330873179
:100FB60089278731AD2F8D1AE12FE22FE72F0430D5
:100FC600873189278731AD2F0D1BEA2FEB2FF02FA5
:100FD6000530873189278731AD2F8D1BF32FF42FED
:100FE600C22F0630873189278731AD2F01288731F7
:0A0FF6005B278731F2002000A62FD0
:020000040001F9
:04000E00E43FFF3F8D
:00000001FF
