:040000000128FE2FA6
:100EE8001630210097000800210099012200960180
:100EF800080087319F2787318731782787318731E5
:100F0800742787310800F10022008E010630710233
:100F180003188F2F902F9E2F9B300032890B912F13
:100F28000130F000710A992FF035890B982F70085D
:100F380022008E00080022008C018D018E013F30B6
:100F480021008C00F0308D00C0308E0023008E010F
:100F58008D0103308C00F03024008D003F308C0070
:100F68002100951322009D01080087317D278731D4
:100F780020000C19C02FC12FC52FFF3087318727BC
:100F8800873120000C1AC92FCA2FCF2F0030873184
:100F980087278731BC2F8C1AD22FD32FD82F013017
:100FA800873187278731BC2F0D1ADB2FDC2FE12FE4
:100FB8000230873187278731BC2F8D1AE42FE52F20
:100FC800EA2F0330873187278731BC2F0D1BED2F80
:100FD800EE2FF32F0430873187278731BC2F8D1BE5
:100FE800F62FF72FFC2F0530873187278731BC2F45
:080FF800BC2F01282000B92FD5
:020000040001F9
:04000E00E43FFF3F8D
:00000001FF
